{
	"problem.sol": {
		"Lottery": {
			"abi": [
				{
					"constant": false,
					"inputs": [
						{
							"internalType": "uint256",
							"name": "price",
							"type": "uint256"
						}
					],
					"name": "buy",
					"outputs": [],
					"payable": false,
					"stateMutability": "nonpayable",
					"type": "function"
				},
				{
					"constant": false,
					"inputs": [],
					"name": "makeTheDraw",
					"outputs": [],
					"payable": false,
					"stateMutability": "nonpayable",
					"type": "function"
				}
			],
			"devdoc": {
				"methods": {}
			},
			"evm": {
				"assembly": "    /* \"problem.sol\":26:884  contract Lottery {... */\n  mstore(0x40, 0x80)\n    /* \"problem.sol\":67:68  0 */\n  0x00\n    /* \"problem.sol\":49:68  uint totalMoney = 0 */\n  dup1\n  sstore\n    /* \"problem.sol\":26:884  contract Lottery {... */\n  callvalue\n    /* \"--CODEGEN--\":8:17   */\n  dup1\n    /* \"--CODEGEN--\":5:7   */\n  iszero\n  tag_1\n  jumpi\n    /* \"--CODEGEN--\":30:31   */\n  0x00\n    /* \"--CODEGEN--\":27:28   */\n  dup1\n    /* \"--CODEGEN--\":20:32   */\n  revert\n    /* \"--CODEGEN--\":5:7   */\ntag_1:\n    /* \"problem.sol\":26:884  contract Lottery {... */\n  pop\n  dataSize(sub_0)\n  dup1\n  dataOffset(sub_0)\n  0x00\n  codecopy\n  0x00\n  return\nstop\n\nsub_0: assembly {\n        /* \"problem.sol\":26:884  contract Lottery {... */\n      mstore(0x40, 0x80)\n      callvalue\n        /* \"--CODEGEN--\":8:17   */\n      dup1\n        /* \"--CODEGEN--\":5:7   */\n      iszero\n      tag_1\n      jumpi\n        /* \"--CODEGEN--\":30:31   */\n      0x00\n        /* \"--CODEGEN--\":27:28   */\n      dup1\n        /* \"--CODEGEN--\":20:32   */\n      revert\n        /* \"--CODEGEN--\":5:7   */\n    tag_1:\n        /* \"problem.sol\":26:884  contract Lottery {... */\n      pop\n      jumpi(tag_2, lt(calldatasize, 0x04))\n      shr(0xe0, calldataload(0x00))\n      dup1\n      0x16ace61f\n      eq\n      tag_3\n      jumpi\n      dup1\n      0xd96a094a\n      eq\n      tag_4\n      jumpi\n    tag_2:\n      0x00\n      dup1\n      revert\n        /* \"problem.sol\":765:882  function makeTheDraw() public checkTime {... */\n    tag_3:\n      tag_5\n      tag_6\n      jump\t// in\n    tag_5:\n      stop\n        /* \"problem.sol\":343:587  function buy(uint price) public {... */\n    tag_4:\n      tag_7\n      0x04\n      dup1\n      calldatasize\n      sub\n        /* \"--CODEGEN--\":13:15   */\n      0x20\n        /* \"--CODEGEN--\":8:11   */\n      dup2\n        /* \"--CODEGEN--\":5:16   */\n      lt\n        /* \"--CODEGEN--\":2:4   */\n      iszero\n      tag_8\n      jumpi\n        /* \"--CODEGEN--\":29:30   */\n      0x00\n        /* \"--CODEGEN--\":26:27   */\n      dup1\n        /* \"--CODEGEN--\":19:31   */\n      revert\n        /* \"--CODEGEN--\":2:4   */\n    tag_8:\n        /* \"problem.sol\":343:587  function buy(uint price) public {... */\n      dup2\n      add\n      swap1\n      dup1\n      dup1\n      calldataload\n      swap1\n      0x20\n      add\n      swap1\n      swap3\n      swap2\n      swap1\n      pop\n      pop\n      pop\n      tag_9\n      jump\t// in\n    tag_7:\n      stop\n        /* \"problem.sol\":765:882  function makeTheDraw() public checkTime {... */\n    tag_6:\n        /* \"problem.sol\":638:648  1685286000 */\n      0x64736c70\n        /* \"problem.sol\":632:635  now */\n      timestamp\n        /* \"problem.sol\":632:648  now > 1685286000 */\n      gt\n        /* \"problem.sol\":624:689  require(now > 1685286000, \"The specified time hasn't yet passed\") */\n      tag_11\n      jumpi\n      mload(0x40)\n      0x08c379a000000000000000000000000000000000000000000000000000000000\n      dup2\n      mstore\n      0x04\n      add\n      dup1\n      dup1\n      0x20\n      add\n      dup3\n      dup2\n      sub\n      dup3\n      mstore\n      0x24\n      dup2\n      mstore\n      0x20\n      add\n      dup1\n      data_5b2f8845a2f33c2a3301aba1713f35da97b2ab7e7bbe02d488edc3f33f6c135c\n      0x24\n      swap2\n      codecopy\n      0x40\n      add\n      swap2\n      pop\n      pop\n      mload(0x40)\n      dup1\n      swap2\n      sub\n      swap1\n      revert\n    tag_11:\n        /* \"problem.sol\":815:825  uint award */\n      0x00\n        /* \"problem.sol\":845:847  10 */\n      0x0a\n        /* \"problem.sol\":840:843  100 */\n      0x64\n        /* \"problem.sol\":829:839  totalMoney */\n      sload(0x00)\n        /* \"problem.sol\":829:843  totalMoney/100 */\n      dup2\n      tag_13\n      jumpi\n      invalid\n    tag_13:\n      div\n        /* \"problem.sol\":828:847  (totalMoney/100)*10 */\n      mul\n        /* \"problem.sol\":815:847  uint award = (totalMoney/100)*10 */\n      swap1\n      pop\n        /* \"problem.sol\":751:752  _ */\n      pop\n        /* \"problem.sol\":765:882  function makeTheDraw() public checkTime {... */\n      jump\t// out\n        /* \"problem.sol\":343:587  function buy(uint price) public {... */\n    tag_9:\n        /* \"problem.sol\":401:402  0 */\n      0x00\n        /* \"problem.sol\":393:398  price */\n      dup2\n        /* \"problem.sol\":393:402  price > 0 */\n      gt\n        /* \"problem.sol\":385:457  require(price > 0, \"For joining the lottery, expenditure is mandatory.\") */\n      tag_15\n      jumpi\n      mload(0x40)\n      0x08c379a000000000000000000000000000000000000000000000000000000000\n      dup2\n      mstore\n      0x04\n      add\n      dup1\n      dup1\n      0x20\n      add\n      dup3\n      dup2\n      sub\n      dup3\n      mstore\n      0x32\n      dup2\n      mstore\n      0x20\n      add\n      dup1\n      data_aa2479975c0cab002dd685c50fd181886f931f98ef0585272d8da2cea21e347d\n      0x32\n      swap2\n      codecopy\n      0x40\n      add\n      swap2\n      pop\n      pop\n      mload(0x40)\n      dup1\n      swap2\n      sub\n      swap1\n      revert\n    tag_15:\n        /* \"problem.sol\":467:489  Customer memory person */\n      tag_16\n      tag_17\n      jump\t// in\n    tag_16:\n        /* \"problem.sol\":492:519  Customer(price, msg.sender) */\n      mload(0x40)\n      dup1\n      0x40\n      add\n      0x40\n      mstore\n      dup1\n        /* \"problem.sol\":501:506  price */\n      dup4\n        /* \"problem.sol\":492:519  Customer(price, msg.sender) */\n      dup2\n      mstore\n      0x20\n      add\n        /* \"problem.sol\":508:518  msg.sender */\n      caller\n        /* \"problem.sol\":492:519  Customer(price, msg.sender) */\n      0xffffffffffffffffffffffffffffffffffffffff\n      and\n      dup2\n      mstore\n      pop\n        /* \"problem.sol\":467:519  Customer memory person = Customer(price, msg.sender) */\n      swap1\n      pop\n        /* \"problem.sol\":529:538  customers */\n      0x02\n        /* \"problem.sol\":544:550  person */\n      dup2\n        /* \"problem.sol\":529:551  customers.push(person) */\n      swap1\n      dup1\n        /* \"--CODEGEN--\":39:40   */\n      0x01\n        /* \"--CODEGEN--\":33:36   */\n      dup2\n        /* \"--CODEGEN--\":27:37   */\n      sload\n        /* \"--CODEGEN--\":23:41   */\n      add\n        /* \"--CODEGEN--\":57:67   */\n      dup1\n        /* \"--CODEGEN--\":52:55   */\n      dup3\n        /* \"--CODEGEN--\":45:68   */\n      sstore\n        /* \"--CODEGEN--\":79:89   */\n      dup1\n        /* \"--CODEGEN--\":72:89   */\n      swap2\n      pop\n        /* \"--CODEGEN--\":0:93   */\n      pop\n        /* \"problem.sol\":529:551  customers.push(person) */\n      swap1\n      0x01\n      dup3\n      sub\n      swap1\n      0x00\n      mstore\n      keccak256(0x00, 0x20)\n      swap1\n      0x02\n      mul\n      add\n      0x00\n      swap1\n      swap2\n      swap3\n      swap1\n      swap2\n      swap1\n      swap2\n      pop\n      0x00\n      dup3\n      add\n      mload\n      dup2\n      0x00\n      add\n      sstore\n      0x20\n      dup3\n      add\n      mload\n      dup2\n      0x01\n      add\n      exp(0x0100, 0x00)\n      dup2\n      sload\n      dup2\n      0xffffffffffffffffffffffffffffffffffffffff\n      mul\n      not\n      and\n      swap1\n      dup4\n      0xffffffffffffffffffffffffffffffffffffffff\n      and\n      mul\n      or\n      swap1\n      sstore\n      pop\n      pop\n      pop\n      pop\n        /* \"problem.sol\":575:580  price */\n      dup2\n        /* \"problem.sol\":561:571  totalMoney */\n      0x00\n      dup1\n        /* \"problem.sol\":561:580  totalMoney += price */\n      dup3\n      dup3\n      sload\n      add\n      swap3\n      pop\n      pop\n      dup2\n      swap1\n      sstore\n      pop\n        /* \"problem.sol\":343:587  function buy(uint price) public {... */\n      pop\n      pop\n      jump\t// out\n        /* \"problem.sol\":26:884  contract Lottery {... */\n    tag_17:\n      mload(0x40)\n      dup1\n      0x40\n      add\n      0x40\n      mstore\n      dup1\n      0x00\n      dup2\n      mstore\n      0x20\n      add\n      and(0xffffffffffffffffffffffffffffffffffffffff, 0x00)\n      dup2\n      mstore\n      pop\n      swap1\n      jump\t// out\n    stop\n    data_5b2f8845a2f33c2a3301aba1713f35da97b2ab7e7bbe02d488edc3f33f6c135c 546865207370656369666965642074696d65206861736e27742079657420706173736564\n    data_aa2479975c0cab002dd685c50fd181886f931f98ef0585272d8da2cea21e347d 466f72206a6f696e696e6720746865206c6f74746572792c20657870656e646974757265206973206d616e6461746f72792e\n\n    auxdata: 0xa265627a7a72315820ceff430d855c95c0f13b58fe4e2cb5a1f1f870ef9363d455bdd2deeab4a6613d64736f6c63430005110032\n}\n",
				"bytecode": {
					"linkReferences": {},
					"object": "60806040526000805534801561001457600080fd5b506102c4806100246000396000f3fe608060405234801561001057600080fd5b50600436106100365760003560e01c806316ace61f1461003b578063d96a094a14610045575b600080fd5b610043610073565b005b6100716004803603602081101561005b57600080fd5b81019080803590602001909291905050506100e6565b005b6364736c7042116100cf576040517f08c379a000000000000000000000000000000000000000000000000000000000815260040180806020018281038252602481526020018061023a6024913960400191505060405180910390fd5b6000600a6064600054816100df57fe5b0402905050565b6000811161013f576040517f08c379a000000000000000000000000000000000000000000000000000000000815260040180806020018281038252603281526020018061025e6032913960400191505060405180910390fd5b610147610209565b60405180604001604052808381526020013373ffffffffffffffffffffffffffffffffffffffff168152509050600281908060018154018082558091505090600182039060005260206000209060020201600090919290919091506000820151816000015560208201518160010160006101000a81548173ffffffffffffffffffffffffffffffffffffffff021916908373ffffffffffffffffffffffffffffffffffffffff1602179055505050508160008082825401925050819055505050565b604051806040016040528060008152602001600073ffffffffffffffffffffffffffffffffffffffff168152509056fe546865207370656369666965642074696d65206861736e27742079657420706173736564466f72206a6f696e696e6720746865206c6f74746572792c20657870656e646974757265206973206d616e6461746f72792ea265627a7a72315820ceff430d855c95c0f13b58fe4e2cb5a1f1f870ef9363d455bdd2deeab4a6613d64736f6c63430005110032",
					"opcodes": "PUSH1 0x80 PUSH1 0x40 MSTORE PUSH1 0x0 DUP1 SSTORE CALLVALUE DUP1 ISZERO PUSH2 0x14 JUMPI PUSH1 0x0 DUP1 REVERT JUMPDEST POP PUSH2 0x2C4 DUP1 PUSH2 0x24 PUSH1 0x0 CODECOPY PUSH1 0x0 RETURN INVALID PUSH1 0x80 PUSH1 0x40 MSTORE CALLVALUE DUP1 ISZERO PUSH2 0x10 JUMPI PUSH1 0x0 DUP1 REVERT JUMPDEST POP PUSH1 0x4 CALLDATASIZE LT PUSH2 0x36 JUMPI PUSH1 0x0 CALLDATALOAD PUSH1 0xE0 SHR DUP1 PUSH4 0x16ACE61F EQ PUSH2 0x3B JUMPI DUP1 PUSH4 0xD96A094A EQ PUSH2 0x45 JUMPI JUMPDEST PUSH1 0x0 DUP1 REVERT JUMPDEST PUSH2 0x43 PUSH2 0x73 JUMP JUMPDEST STOP JUMPDEST PUSH2 0x71 PUSH1 0x4 DUP1 CALLDATASIZE SUB PUSH1 0x20 DUP2 LT ISZERO PUSH2 0x5B JUMPI PUSH1 0x0 DUP1 REVERT JUMPDEST DUP2 ADD SWAP1 DUP1 DUP1 CALLDATALOAD SWAP1 PUSH1 0x20 ADD SWAP1 SWAP3 SWAP2 SWAP1 POP POP POP PUSH2 0xE6 JUMP JUMPDEST STOP JUMPDEST PUSH4 0x64736C70 TIMESTAMP GT PUSH2 0xCF JUMPI PUSH1 0x40 MLOAD PUSH32 0x8C379A000000000000000000000000000000000000000000000000000000000 DUP2 MSTORE PUSH1 0x4 ADD DUP1 DUP1 PUSH1 0x20 ADD DUP3 DUP2 SUB DUP3 MSTORE PUSH1 0x24 DUP2 MSTORE PUSH1 0x20 ADD DUP1 PUSH2 0x23A PUSH1 0x24 SWAP2 CODECOPY PUSH1 0x40 ADD SWAP2 POP POP PUSH1 0x40 MLOAD DUP1 SWAP2 SUB SWAP1 REVERT JUMPDEST PUSH1 0x0 PUSH1 0xA PUSH1 0x64 PUSH1 0x0 SLOAD DUP2 PUSH2 0xDF JUMPI INVALID JUMPDEST DIV MUL SWAP1 POP POP JUMP JUMPDEST PUSH1 0x0 DUP2 GT PUSH2 0x13F JUMPI PUSH1 0x40 MLOAD PUSH32 0x8C379A000000000000000000000000000000000000000000000000000000000 DUP2 MSTORE PUSH1 0x4 ADD DUP1 DUP1 PUSH1 0x20 ADD DUP3 DUP2 SUB DUP3 MSTORE PUSH1 0x32 DUP2 MSTORE PUSH1 0x20 ADD DUP1 PUSH2 0x25E PUSH1 0x32 SWAP2 CODECOPY PUSH1 0x40 ADD SWAP2 POP POP PUSH1 0x40 MLOAD DUP1 SWAP2 SUB SWAP1 REVERT JUMPDEST PUSH2 0x147 PUSH2 0x209 JUMP JUMPDEST PUSH1 0x40 MLOAD DUP1 PUSH1 0x40 ADD PUSH1 0x40 MSTORE DUP1 DUP4 DUP2 MSTORE PUSH1 0x20 ADD CALLER PUSH20 0xFFFFFFFFFFFFFFFFFFFFFFFFFFFFFFFFFFFFFFFF AND DUP2 MSTORE POP SWAP1 POP PUSH1 0x2 DUP2 SWAP1 DUP1 PUSH1 0x1 DUP2 SLOAD ADD DUP1 DUP3 SSTORE DUP1 SWAP2 POP POP SWAP1 PUSH1 0x1 DUP3 SUB SWAP1 PUSH1 0x0 MSTORE PUSH1 0x20 PUSH1 0x0 KECCAK256 SWAP1 PUSH1 0x2 MUL ADD PUSH1 0x0 SWAP1 SWAP2 SWAP3 SWAP1 SWAP2 SWAP1 SWAP2 POP PUSH1 0x0 DUP3 ADD MLOAD DUP2 PUSH1 0x0 ADD SSTORE PUSH1 0x20 DUP3 ADD MLOAD DUP2 PUSH1 0x1 ADD PUSH1 0x0 PUSH2 0x100 EXP DUP2 SLOAD DUP2 PUSH20 0xFFFFFFFFFFFFFFFFFFFFFFFFFFFFFFFFFFFFFFFF MUL NOT AND SWAP1 DUP4 PUSH20 0xFFFFFFFFFFFFFFFFFFFFFFFFFFFFFFFFFFFFFFFF AND MUL OR SWAP1 SSTORE POP POP POP POP DUP2 PUSH1 0x0 DUP1 DUP3 DUP3 SLOAD ADD SWAP3 POP POP DUP2 SWAP1 SSTORE POP POP POP JUMP JUMPDEST PUSH1 0x40 MLOAD DUP1 PUSH1 0x40 ADD PUSH1 0x40 MSTORE DUP1 PUSH1 0x0 DUP2 MSTORE PUSH1 0x20 ADD PUSH1 0x0 PUSH20 0xFFFFFFFFFFFFFFFFFFFFFFFFFFFFFFFFFFFFFFFF AND DUP2 MSTORE POP SWAP1 JUMP INVALID SLOAD PUSH9 0x652073706563696669 PUSH6 0x642074696D65 KECCAK256 PUSH9 0x61736E277420796574 KECCAK256 PUSH17 0x6173736564466F72206A6F696E696E6720 PUSH21 0x6865206C6F74746572792C20657870656E64697475 PUSH19 0x65206973206D616E6461746F72792EA265627A PUSH27 0x72315820CEFF430D855C95C0F13B58FE4E2CB5A1F1F870EF9363D4 SSTORE 0xBD 0xD2 0xDE 0xEA 0xB4 0xA6 PUSH2 0x3D64 PUSH20 0x6F6C634300051100320000000000000000000000 "
				},
				"gasEstimates": {
					"creation": {
						"codeDepositCost": "141600",
						"executionCost": "5196",
						"totalCost": "146796"
					},
					"external": {
						"buy(uint256)": "infinite",
						"makeTheDraw()": "infinite"
					}
				},
				"methodIdentifiers": {
					"buy(uint256)": "d96a094a",
					"makeTheDraw()": "16ace61f"
				}
			},
			"storageLayout": {
				"storage": [
					{
						"astId": 4,
						"contract": "problem.sol:Lottery",
						"label": "totalMoney",
						"offset": 0,
						"slot": "0",
						"type": "t_uint256"
					},
					{
						"astId": 6,
						"contract": "problem.sol:Lottery",
						"label": "mainAcount",
						"offset": 0,
						"slot": "1",
						"type": "t_address"
					},
					{
						"astId": 9,
						"contract": "problem.sol:Lottery",
						"label": "customers",
						"offset": 0,
						"slot": "2",
						"type": "t_array(t_struct(Customer)14_storage)dyn_storage"
					}
				],
				"types": {
					"t_address": {
						"encoding": "inplace",
						"label": "address",
						"numberOfBytes": "20"
					},
					"t_array(t_struct(Customer)14_storage)dyn_storage": {
						"base": "t_struct(Customer)14_storage",
						"encoding": "dynamic_array",
						"label": "struct Lottery.Customer[]",
						"numberOfBytes": "32"
					},
					"t_struct(Customer)14_storage": {
						"encoding": "inplace",
						"label": "struct Lottery.Customer",
						"members": [
							{
								"astId": 11,
								"contract": "problem.sol:Lottery",
								"label": "spent",
								"offset": 0,
								"slot": "0",
								"type": "t_uint256"
							},
							{
								"astId": 13,
								"contract": "problem.sol:Lottery",
								"label": "account",
								"offset": 0,
								"slot": "1",
								"type": "t_address"
							}
						],
						"numberOfBytes": "64"
					},
					"t_uint256": {
						"encoding": "inplace",
						"label": "uint256",
						"numberOfBytes": "32"
					}
				}
			},
			"userdoc": {
				"methods": {}
			}
		}
	}
}