{
	"SayiEkleCikar.sol": {
		"Degerleme": {
			"abi": [
				{
					"constant": false,
					"inputs": [
						{
							"name": "sayi",
							"type": "int256"
						}
					],
					"name": "degerArtir",
					"outputs": [],
					"payable": false,
					"stateMutability": "nonpayable",
					"type": "function"
				},
				{
					"constant": false,
					"inputs": [
						{
							"name": "sayi",
							"type": "int256"
						}
					],
					"name": "degerAzalt",
					"outputs": [],
					"payable": false,
					"stateMutability": "nonpayable",
					"type": "function"
				},
				{
					"constant": true,
					"inputs": [],
					"name": "degerGoster",
					"outputs": [
						{
							"name": "",
							"type": "int256"
						}
					],
					"payable": false,
					"stateMutability": "view",
					"type": "function"
				}
			],
			"devdoc": {
				"methods": {}
			},
			"evm": {
				"assembly": "    /* \"SayiEkleCikar.sol\":27:336  contract Degerleme {\r... */\n  mstore(0x40, 0x80)\n    /* \"SayiEkleCikar.sol\":65:66  0 */\n  0x0\n    /* \"SayiEkleCikar.sol\":53:66  int deger = 0 */\n  dup1\n  sstore\n    /* \"SayiEkleCikar.sol\":27:336  contract Degerleme {\r... */\n  callvalue\n    /* \"--CODEGEN--\":8:17   */\n  dup1\n    /* \"--CODEGEN--\":5:7   */\n  iszero\n  tag_1\n  jumpi\n    /* \"--CODEGEN--\":30:31   */\n  0x0\n    /* \"--CODEGEN--\":27:28   */\n  dup1\n    /* \"--CODEGEN--\":20:32   */\n  revert\n    /* \"--CODEGEN--\":5:7   */\ntag_1:\n    /* \"SayiEkleCikar.sol\":27:336  contract Degerleme {\r... */\n  pop\n  dataSize(sub_0)\n  dup1\n  dataOffset(sub_0)\n  0x0\n  codecopy\n  0x0\n  return\nstop\n\nsub_0: assembly {\n        /* \"SayiEkleCikar.sol\":27:336  contract Degerleme {\r... */\n      mstore(0x40, 0x80)\n      jumpi(tag_1, lt(calldatasize, 0x4))\n      calldataload(0x0)\n      0x100000000000000000000000000000000000000000000000000000000\n      swap1\n      div\n      0xffffffff\n      and\n      dup1\n      0x5507ba12\n      eq\n      tag_2\n      jumpi\n      dup1\n      0xbb89a9fe\n      eq\n      tag_3\n      jumpi\n      dup1\n      0xef2c3a98\n      eq\n      tag_4\n      jumpi\n    tag_1:\n      0x0\n      dup1\n      revert\n        /* \"SayiEkleCikar.sol\":79:156  function degerArtir (int sayi) public {\r... */\n    tag_2:\n      callvalue\n        /* \"--CODEGEN--\":8:17   */\n      dup1\n        /* \"--CODEGEN--\":5:7   */\n      iszero\n      tag_5\n      jumpi\n        /* \"--CODEGEN--\":30:31   */\n      0x0\n        /* \"--CODEGEN--\":27:28   */\n      dup1\n        /* \"--CODEGEN--\":20:32   */\n      revert\n        /* \"--CODEGEN--\":5:7   */\n    tag_5:\n        /* \"SayiEkleCikar.sol\":79:156  function degerArtir (int sayi) public {\r... */\n      pop\n      tag_6\n      0x4\n      dup1\n      calldatasize\n      sub\n      dup2\n      add\n      swap1\n      dup1\n      dup1\n      calldataload\n      swap1\n      0x20\n      add\n      swap1\n      swap3\n      swap2\n      swap1\n      pop\n      pop\n      pop\n      jump(tag_7)\n    tag_6:\n      stop\n        /* \"SayiEkleCikar.sol\":164:241  function degerAzalt (int sayi) public {\r... */\n    tag_3:\n      callvalue\n        /* \"--CODEGEN--\":8:17   */\n      dup1\n        /* \"--CODEGEN--\":5:7   */\n      iszero\n      tag_8\n      jumpi\n        /* \"--CODEGEN--\":30:31   */\n      0x0\n        /* \"--CODEGEN--\":27:28   */\n      dup1\n        /* \"--CODEGEN--\":20:32   */\n      revert\n        /* \"--CODEGEN--\":5:7   */\n    tag_8:\n        /* \"SayiEkleCikar.sol\":164:241  function degerAzalt (int sayi) public {\r... */\n      pop\n      tag_9\n      0x4\n      dup1\n      calldatasize\n      sub\n      dup2\n      add\n      swap1\n      dup1\n      dup1\n      calldataload\n      swap1\n      0x20\n      add\n      swap1\n      swap3\n      swap2\n      swap1\n      pop\n      pop\n      pop\n      jump(tag_10)\n    tag_9:\n      stop\n        /* \"SayiEkleCikar.sol\":249:333  function degerGoster () public view returns (int) {\r... */\n    tag_4:\n      callvalue\n        /* \"--CODEGEN--\":8:17   */\n      dup1\n        /* \"--CODEGEN--\":5:7   */\n      iszero\n      tag_11\n      jumpi\n        /* \"--CODEGEN--\":30:31   */\n      0x0\n        /* \"--CODEGEN--\":27:28   */\n      dup1\n        /* \"--CODEGEN--\":20:32   */\n      revert\n        /* \"--CODEGEN--\":5:7   */\n    tag_11:\n        /* \"SayiEkleCikar.sol\":249:333  function degerGoster () public view returns (int) {\r... */\n      pop\n      tag_12\n      jump(tag_13)\n    tag_12:\n      mload(0x40)\n      dup1\n      dup3\n      dup2\n      mstore\n      0x20\n      add\n      swap2\n      pop\n      pop\n      mload(0x40)\n      dup1\n      swap2\n      sub\n      swap1\n      return\n        /* \"SayiEkleCikar.sol\":79:156  function degerArtir (int sayi) public {\r... */\n    tag_7:\n        /* \"SayiEkleCikar.sol\":144:148  sayi */\n      dup1\n        /* \"SayiEkleCikar.sol\":136:141  deger */\n      sload(0x0)\n        /* \"SayiEkleCikar.sol\":136:148  deger + sayi */\n      add\n        /* \"SayiEkleCikar.sol\":128:133  deger */\n      0x0\n        /* \"SayiEkleCikar.sol\":128:148  deger = deger + sayi */\n      dup2\n      swap1\n      sstore\n      pop\n        /* \"SayiEkleCikar.sol\":79:156  function degerArtir (int sayi) public {\r... */\n      pop\n      jump\t// out\n        /* \"SayiEkleCikar.sol\":164:241  function degerAzalt (int sayi) public {\r... */\n    tag_10:\n        /* \"SayiEkleCikar.sol\":229:233  sayi */\n      dup1\n        /* \"SayiEkleCikar.sol\":221:226  deger */\n      sload(0x0)\n        /* \"SayiEkleCikar.sol\":221:233  deger - sayi */\n      sub\n        /* \"SayiEkleCikar.sol\":213:218  deger */\n      0x0\n        /* \"SayiEkleCikar.sol\":213:233  deger = deger - sayi */\n      dup2\n      swap1\n      sstore\n      pop\n        /* \"SayiEkleCikar.sol\":164:241  function degerAzalt (int sayi) public {\r... */\n      pop\n      jump\t// out\n        /* \"SayiEkleCikar.sol\":249:333  function degerGoster () public view returns (int) {\r... */\n    tag_13:\n        /* \"SayiEkleCikar.sol\":294:297  int */\n      0x0\n        /* \"SayiEkleCikar.sol\":317:322  deger */\n      dup1\n      sload\n        /* \"SayiEkleCikar.sol\":310:322  return deger */\n      swap1\n      pop\n        /* \"SayiEkleCikar.sol\":249:333  function degerGoster () public view returns (int) {\r... */\n      swap1\n      jump\t// out\n\n    auxdata: 0xa165627a7a723058207ef55af0cfd6d8239c8af15ef618f92dfb967717d2d5c8df8fec70ba281283450029\n}\n",
				"bytecode": {
					"linkReferences": {},
					"object": "60806040526000805534801561001457600080fd5b50610125806100246000396000f3006080604052600436106053576000357c0100000000000000000000000000000000000000000000000000000000900463ffffffff1680635507ba12146058578063bb89a9fe146082578063ef2c3a981460ac575b600080fd5b348015606357600080fd5b5060806004803603810190808035906020019092919050505060d4565b005b348015608d57600080fd5b5060aa6004803603810190808035906020019092919050505060e2565b005b34801560b757600080fd5b5060be60f0565b6040518082815260200191505060405180910390f35b806000540160008190555050565b806000540360008190555050565b600080549050905600a165627a7a723058207ef55af0cfd6d8239c8af15ef618f92dfb967717d2d5c8df8fec70ba281283450029",
					"opcodes": "PUSH1 0x80 PUSH1 0x40 MSTORE PUSH1 0x0 DUP1 SSTORE CALLVALUE DUP1 ISZERO PUSH2 0x14 JUMPI PUSH1 0x0 DUP1 REVERT JUMPDEST POP PUSH2 0x125 DUP1 PUSH2 0x24 PUSH1 0x0 CODECOPY PUSH1 0x0 RETURN STOP PUSH1 0x80 PUSH1 0x40 MSTORE PUSH1 0x4 CALLDATASIZE LT PUSH1 0x53 JUMPI PUSH1 0x0 CALLDATALOAD PUSH29 0x100000000000000000000000000000000000000000000000000000000 SWAP1 DIV PUSH4 0xFFFFFFFF AND DUP1 PUSH4 0x5507BA12 EQ PUSH1 0x58 JUMPI DUP1 PUSH4 0xBB89A9FE EQ PUSH1 0x82 JUMPI DUP1 PUSH4 0xEF2C3A98 EQ PUSH1 0xAC JUMPI JUMPDEST PUSH1 0x0 DUP1 REVERT JUMPDEST CALLVALUE DUP1 ISZERO PUSH1 0x63 JUMPI PUSH1 0x0 DUP1 REVERT JUMPDEST POP PUSH1 0x80 PUSH1 0x4 DUP1 CALLDATASIZE SUB DUP2 ADD SWAP1 DUP1 DUP1 CALLDATALOAD SWAP1 PUSH1 0x20 ADD SWAP1 SWAP3 SWAP2 SWAP1 POP POP POP PUSH1 0xD4 JUMP JUMPDEST STOP JUMPDEST CALLVALUE DUP1 ISZERO PUSH1 0x8D JUMPI PUSH1 0x0 DUP1 REVERT JUMPDEST POP PUSH1 0xAA PUSH1 0x4 DUP1 CALLDATASIZE SUB DUP2 ADD SWAP1 DUP1 DUP1 CALLDATALOAD SWAP1 PUSH1 0x20 ADD SWAP1 SWAP3 SWAP2 SWAP1 POP POP POP PUSH1 0xE2 JUMP JUMPDEST STOP JUMPDEST CALLVALUE DUP1 ISZERO PUSH1 0xB7 JUMPI PUSH1 0x0 DUP1 REVERT JUMPDEST POP PUSH1 0xBE PUSH1 0xF0 JUMP JUMPDEST PUSH1 0x40 MLOAD DUP1 DUP3 DUP2 MSTORE PUSH1 0x20 ADD SWAP2 POP POP PUSH1 0x40 MLOAD DUP1 SWAP2 SUB SWAP1 RETURN JUMPDEST DUP1 PUSH1 0x0 SLOAD ADD PUSH1 0x0 DUP2 SWAP1 SSTORE POP POP JUMP JUMPDEST DUP1 PUSH1 0x0 SLOAD SUB PUSH1 0x0 DUP2 SWAP1 SSTORE POP POP JUMP JUMPDEST PUSH1 0x0 DUP1 SLOAD SWAP1 POP SWAP1 JUMP STOP LOG1 PUSH6 0x627A7A723058 KECCAK256 PUSH31 0xF55AF0CFD6D8239C8AF15EF618F92DFB967717D2D5C8DF8FEC70BA28128345 STOP 0x29 "
				},
				"gasEstimates": {
					"creation": {
						"codeDepositCost": "58600",
						"executionCost": "5117",
						"totalCost": "63717"
					},
					"external": {
						"degerArtir(int256)": "20411",
						"degerAzalt(int256)": "20433",
						"degerGoster()": "446"
					}
				},
				"methodIdentifiers": {
					"degerArtir(int256)": "5507ba12",
					"degerAzalt(int256)": "bb89a9fe",
					"degerGoster()": "ef2c3a98"
				}
			},
			"userdoc": {
				"methods": {}
			}
		}
	}
}