{
	"data": {
		"bytecode": {
			"linkReferences": {},
			"object": "608060405261012c60005534801561001657600080fd5b50610195806100266000396000f3fe608060405234801561001057600080fd5b50600436106100575760003560e01c806316afd7b61461005c5780638b20f3a71461006657806394743b9a14610070578063a0794e3e1461007a578063eb6a867d14610098575b600080fd5b6100646100b6565b005b61006e6100c0565b005b6100786100ca565b005b610082610131565b6040518082815260200191505060405180910390f35b6100a0610139565b6040518082815260200191505060405180910390f35b6064600081905550565b60c8600081905550565b63645a220f4211610126576040517f08c379a00000000000000000000000000000000000000000000000000000000081526004018080602001828103825260218152602001806101406021913960400191505060405180910390fd5b6101f4600081905550565b600042905090565b6000548156fe42656c69726c656e656e207a616d616e2068656ec3bc7a20676563696c6d656469a265627a7a72315820a67fd30100668770a2af6ddba43ad127ee3e518ba8c28daa9fccf3cfcd7f3fda64736f6c63430005110032",
			"opcodes": "PUSH1 0x80 PUSH1 0x40 MSTORE PUSH2 0x12C PUSH1 0x0 SSTORE CALLVALUE DUP1 ISZERO PUSH2 0x16 JUMPI PUSH1 0x0 DUP1 REVERT JUMPDEST POP PUSH2 0x195 DUP1 PUSH2 0x26 PUSH1 0x0 CODECOPY PUSH1 0x0 RETURN INVALID PUSH1 0x80 PUSH1 0x40 MSTORE CALLVALUE DUP1 ISZERO PUSH2 0x10 JUMPI PUSH1 0x0 DUP1 REVERT JUMPDEST POP PUSH1 0x4 CALLDATASIZE LT PUSH2 0x57 JUMPI PUSH1 0x0 CALLDATALOAD PUSH1 0xE0 SHR DUP1 PUSH4 0x16AFD7B6 EQ PUSH2 0x5C JUMPI DUP1 PUSH4 0x8B20F3A7 EQ PUSH2 0x66 JUMPI DUP1 PUSH4 0x94743B9A EQ PUSH2 0x70 JUMPI DUP1 PUSH4 0xA0794E3E EQ PUSH2 0x7A JUMPI DUP1 PUSH4 0xEB6A867D EQ PUSH2 0x98 JUMPI JUMPDEST PUSH1 0x0 DUP1 REVERT JUMPDEST PUSH2 0x64 PUSH2 0xB6 JUMP JUMPDEST STOP JUMPDEST PUSH2 0x6E PUSH2 0xC0 JUMP JUMPDEST STOP JUMPDEST PUSH2 0x78 PUSH2 0xCA JUMP JUMPDEST STOP JUMPDEST PUSH2 0x82 PUSH2 0x131 JUMP JUMPDEST PUSH1 0x40 MLOAD DUP1 DUP3 DUP2 MSTORE PUSH1 0x20 ADD SWAP2 POP POP PUSH1 0x40 MLOAD DUP1 SWAP2 SUB SWAP1 RETURN JUMPDEST PUSH2 0xA0 PUSH2 0x139 JUMP JUMPDEST PUSH1 0x40 MLOAD DUP1 DUP3 DUP2 MSTORE PUSH1 0x20 ADD SWAP2 POP POP PUSH1 0x40 MLOAD DUP1 SWAP2 SUB SWAP1 RETURN JUMPDEST PUSH1 0x64 PUSH1 0x0 DUP2 SWAP1 SSTORE POP JUMP JUMPDEST PUSH1 0xC8 PUSH1 0x0 DUP2 SWAP1 SSTORE POP JUMP JUMPDEST PUSH4 0x645A220F TIMESTAMP GT PUSH2 0x126 JUMPI PUSH1 0x40 MLOAD PUSH32 0x8C379A000000000000000000000000000000000000000000000000000000000 DUP2 MSTORE PUSH1 0x4 ADD DUP1 DUP1 PUSH1 0x20 ADD DUP3 DUP2 SUB DUP3 MSTORE PUSH1 0x21 DUP2 MSTORE PUSH1 0x20 ADD DUP1 PUSH2 0x140 PUSH1 0x21 SWAP2 CODECOPY PUSH1 0x40 ADD SWAP2 POP POP PUSH1 0x40 MLOAD DUP1 SWAP2 SUB SWAP1 REVERT JUMPDEST PUSH2 0x1F4 PUSH1 0x0 DUP2 SWAP1 SSTORE POP JUMP JUMPDEST PUSH1 0x0 TIMESTAMP SWAP1 POP SWAP1 JUMP JUMPDEST PUSH1 0x0 SLOAD DUP2 JUMP INVALID TIMESTAMP PUSH6 0x6C69726C656E PUSH6 0x6E207A616D61 PUSH15 0x2068656EC3BC7A20676563696C6D65 PUSH5 0x69A265627A PUSH27 0x72315820A67FD30100668770A2AF6DDBA43AD127EE3E518BA8C28D 0xAA SWAP16 0xCC RETURN 0xCF 0xCD PUSH32 0x3FDA64736F6C6343000511003200000000000000000000000000000000000000 "
		},
		"gasEstimates": {
			"creation": {
				"codeDepositCost": "81000",
				"executionCost": "20135",
				"totalCost": "101135"
			},
			"external": {
				"ayarla100()": "20136",
				"ayarla200()": "20158",
				"calis()": "infinite",
				"saatKac()": "256",
				"sayi()": "1071"
			}
		},
		"methodIdentifiers": {
			"ayarla100()": "16afd7b6",
			"ayarla200()": "8b20f3a7",
			"calis()": "94743b9a",
			"saatKac()": "a0794e3e",
			"sayi()": "eb6a867d"
		}
	},
	"abi": [
		{
			"constant": false,
			"inputs": [],
			"name": "ayarla100",
			"outputs": [],
			"payable": false,
			"stateMutability": "nonpayable",
			"type": "function"
		},
		{
			"constant": false,
			"inputs": [],
			"name": "ayarla200",
			"outputs": [],
			"payable": false,
			"stateMutability": "nonpayable",
			"type": "function"
		},
		{
			"constant": false,
			"inputs": [],
			"name": "calis",
			"outputs": [],
			"payable": false,
			"stateMutability": "nonpayable",
			"type": "function"
		},
		{
			"constant": true,
			"inputs": [],
			"name": "saatKac",
			"outputs": [
				{
					"internalType": "uint256",
					"name": "",
					"type": "uint256"
				}
			],
			"payable": false,
			"stateMutability": "view",
			"type": "function"
		},
		{
			"constant": true,
			"inputs": [],
			"name": "sayi",
			"outputs": [
				{
					"internalType": "uint256",
					"name": "",
					"type": "uint256"
				}
			],
			"payable": false,
			"stateMutability": "view",
			"type": "function"
		}
	]
}